{
  "_format": "hh-sol-artifact-1",
  "contractName": "DID",
  "sourceName": "contracts/DIDRegistry.sol",
  "abi": [
    {
      "inputs": [
        {
          "internalType": "address",
          "name": "_id",
          "type": "address"
        },
        {
          "internalType": "string",
          "name": "_delegate",
          "type": "string"
        }
      ],
      "name": "addDelegate",
      "outputs": [],
      "stateMutability": "nonpayable",
      "type": "function"
    },
    {
      "inputs": [
        {
          "internalType": "address",
          "name": "_id",
          "type": "address"
        },
        {
          "internalType": "address",
          "name": "_controller",
          "type": "address"
        },
        {
          "internalType": "address",
          "name": "_keyValue",
          "type": "address"
        }
      ],
      "name": "addPublicKey",
      "outputs": [],
      "stateMutability": "nonpayable",
      "type": "function"
    },
    {
      "inputs": [
        {
          "internalType": "address",
          "name": "_id",
          "type": "address"
        },
        {
          "internalType": "string",
          "name": "_type",
          "type": "string"
        },
        {
          "internalType": "string",
          "name": "_url",
          "type": "string"
        }
      ],
      "name": "addServicePoint",
      "outputs": [],
      "stateMutability": "nonpayable",
      "type": "function"
    },
    {
      "inputs": [
        {
          "internalType": "address",
          "name": "_id",
          "type": "address"
        }
      ],
      "name": "getDID",
      "outputs": [
        {
          "internalType": "string",
          "name": "",
          "type": "string"
        }
      ],
      "stateMutability": "view",
      "type": "function"
    },
    {
      "inputs": [
        {
          "internalType": "address",
          "name": "_id",
          "type": "address"
        }
      ],
      "name": "getInfo",
      "outputs": [
        {
          "internalType": "string",
          "name": "",
          "type": "string"
        },
        {
          "internalType": "uint256",
          "name": "",
          "type": "uint256"
        },
        {
          "internalType": "uint256",
          "name": "",
          "type": "uint256"
        }
      ],
      "stateMutability": "view",
      "type": "function"
    },
    {
      "inputs": [
        {
          "internalType": "address",
          "name": "_id",
          "type": "address"
        },
        {
          "internalType": "uint256",
          "name": "_item",
          "type": "uint256"
        }
      ],
      "name": "getPublicKey",
      "outputs": [
        {
          "internalType": "uint256",
          "name": "",
          "type": "uint256"
        },
        {
          "internalType": "address",
          "name": "",
          "type": "address"
        },
        {
          "internalType": "address",
          "name": "",
          "type": "address"
        }
      ],
      "stateMutability": "view",
      "type": "function"
    },
    {
      "inputs": [
        {
          "internalType": "address",
          "name": "_id",
          "type": "address"
        },
        {
          "internalType": "uint256",
          "name": "_item",
          "type": "uint256"
        }
      ],
      "name": "getServicePoint",
      "outputs": [
        {
          "internalType": "uint256",
          "name": "",
          "type": "uint256"
        },
        {
          "internalType": "string",
          "name": "",
          "type": "string"
        },
        {
          "internalType": "string",
          "name": "",
          "type": "string"
        }
      ],
      "stateMutability": "view",
      "type": "function"
    },
    {
      "inputs": [
        {
          "internalType": "address",
          "name": "_id",
          "type": "address"
        }
      ],
      "name": "recoverAdmin",
      "outputs": [],
      "stateMutability": "nonpayable",
      "type": "function"
    },
    {
      "inputs": [
        {
          "internalType": "address",
          "name": "_id",
          "type": "address"
        }
      ],
      "name": "recoverDID",
      "outputs": [],
      "stateMutability": "nonpayable",
      "type": "function"
    },
    {
      "inputs": [
        {
          "internalType": "address",
          "name": "_id",
          "type": "address"
        },
        {
          "internalType": "string",
          "name": "_did",
          "type": "string"
        }
      ],
      "name": "register",
      "outputs": [],
      "stateMutability": "nonpayable",
      "type": "function"
    },
    {
      "inputs": [
        {
          "internalType": "address",
          "name": "_id",
          "type": "address"
        },
        {
          "internalType": "uint256",
          "name": "_item",
          "type": "uint256"
        }
      ],
      "name": "removePublicKey",
      "outputs": [],
      "stateMutability": "nonpayable",
      "type": "function"
    },
    {
      "inputs": [
        {
          "internalType": "address",
          "name": "_id",
          "type": "address"
        },
        {
          "internalType": "uint256",
          "name": "_item",
          "type": "uint256"
        }
      ],
      "name": "removeServicePoint",
      "outputs": [],
      "stateMutability": "nonpayable",
      "type": "function"
    },
    {
      "inputs": [
        {
          "internalType": "address",
          "name": "_id",
          "type": "address"
        }
      ],
      "name": "revokeIdentity",
      "outputs": [],
      "stateMutability": "nonpayable",
      "type": "function"
    },
    {
      "inputs": [
        {
          "internalType": "address",
          "name": "_id",
          "type": "address"
        },
        {
          "internalType": "uint256",
          "name": "_aThreshold",
          "type": "uint256"
        },
        {
          "internalType": "uint256",
          "name": "_uThreshold",
          "type": "uint256"
        }
      ],
      "name": "setupDelegate",
      "outputs": [],
      "stateMutability": "nonpayable",
      "type": "function"
    },
    {
      "inputs": [
        {
          "internalType": "address",
          "name": "_id",
          "type": "address"
        }
      ],
      "name": "vote",
      "outputs": [],
      "stateMutability": "nonpayable",
      "type": "function"
    }
  ],
  "bytecode": "0x608060405234801561001057600080fd5b506133e5806100206000396000f3fe608060405234801561001057600080fd5b50600436106100f55760003560e01c80636dd7d8ea11610097578063c514a54a11610066578063c514a54a14610244578063f64e30b014610260578063fbde75ef14610290578063ffdd5cf1146102c2576100f5565b80636dd7d8ea146101be57806385d3f5ae146101da578063a2b1c1611461020c578063b1ff3ac514610228576100f5565b806332434a2e116100d357806332434a2e1461014e57806356dcb58d1461016a5780635745a7051461018657806360ec1f8d146101a2576100f5565b80630221f191146100fa5780630ebddd17146101165780631267c8a214610132575b600080fd5b610114600480360381019061010f9190612a25565b6102f4565b005b610130600480360381019061012b9190612a78565b610558565b005b61014c60048036038101906101479190612beb565b6107cb565b005b61016860048036038101906101639190612c76565b610af4565b005b610184600480360381019061017f9190612c76565b610eb3565b005b6101a0600480360381019061019b9190612cd2565b61103d565b005b6101bc60048036038101906101b79190612d25565b61142a565b005b6101d860048036038101906101d39190612a78565b611823565b005b6101f460048036038101906101ef9190612d25565b6118dc565b60405161020393929190612d83565b60405180910390f35b61022660048036038101906102219190612a78565b611a30565b005b610242600480360381019061023d9190612a78565b611d13565b005b61025e60048036038101906102599190612d25565b611e85565b005b61027a60048036038101906102759190612a78565b6121c2565b6040516102879190612e42565b60405180910390f35b6102aa60048036038101906102a59190612d25565b612295565b6040516102b993929190612e64565b60405180910390f35b6102dc60048036038101906102d79190612a78565b6124bf565b6040516102eb93929190612ea9565b60405180910390f35b600015156000808573ffffffffffffffffffffffffffffffffffffffff1673ffffffffffffffffffffffffffffffffffffffff16815260200190815260200160002060080160019054906101000a900460ff16151514610389576040517f08c379a000000000000000000000000000000000000000000000000000000000815260040161038090612f33565b60405180910390fd5b816000808573ffffffffffffffffffffffffffffffffffffffff1673ffffffffffffffffffffffffffffffffffffffff168152602001908152602001600020600b0181905550806000808573ffffffffffffffffffffffffffffffffffffffff1673ffffffffffffffffffffffffffffffffffffffff168152602001908152602001600020600c018190555060008060008573ffffffffffffffffffffffffffffffffffffffff1673ffffffffffffffffffffffffffffffffffffffff16815260200190815260200160002060080160006101000a81548160ff0219169083151502179055506000808473ffffffffffffffffffffffffffffffffffffffff1673ffffffffffffffffffffffffffffffffffffffff168152602001908152602001600020600901805490506000808573ffffffffffffffffffffffffffffffffffffffff1673ffffffffffffffffffffffffffffffffffffffff168152602001908152602001600020600a018190555060016000808573ffffffffffffffffffffffffffffffffffffffff1673ffffffffffffffffffffffffffffffffffffffff16815260200190815260200160002060080160016101000a81548160ff021916908315150217905550505050565b806000808273ffffffffffffffffffffffffffffffffffffffff1673ffffffffffffffffffffffffffffffffffffffff16815260200190815260200160002060010160009054906101000a900473ffffffffffffffffffffffffffffffffffffffff1673ffffffffffffffffffffffffffffffffffffffff163373ffffffffffffffffffffffffffffffffffffffff16146105f257600080fd5b6000808373ffffffffffffffffffffffffffffffffffffffff1673ffffffffffffffffffffffffffffffffffffffff168152602001908152602001600020600080820160006101000a81549073ffffffffffffffffffffffffffffffffffffffff02191690556001820160006101000a81549073ffffffffffffffffffffffffffffffffffffffff02191690556002820160006101000a81549073ffffffffffffffffffffffffffffffffffffffff02191690556003820160006106b691906127c8565b600482016000905560068201600090556008820160006101000a81549060ff02191690556008820160016101000a81549060ff02191690556009820160006106fe9190612808565b600a820160009055600b820160009055600c820160009055505060018060008473ffffffffffffffffffffffffffffffffffffffff1673ffffffffffffffffffffffffffffffffffffffff16815260200190815260200160002060006101000a81548160ff0219169083151502179055506001600260008473ffffffffffffffffffffffffffffffffffffffff1673ffffffffffffffffffffffffffffffffffffffff16815260200190815260200160002060006101000a81548160ff0219169083151502179055505050565b826000808273ffffffffffffffffffffffffffffffffffffffff1673ffffffffffffffffffffffffffffffffffffffff16815260200190815260200160002060010160009054906101000a900473ffffffffffffffffffffffffffffffffffffffff1673ffffffffffffffffffffffffffffffffffffffff163373ffffffffffffffffffffffffffffffffffffffff161461086557600080fd5b6000808573ffffffffffffffffffffffffffffffffffffffff1673ffffffffffffffffffffffffffffffffffffffff16815260200190815260200160002060060160008154809291906108b790612f82565b91905055506000808573ffffffffffffffffffffffffffffffffffffffff1673ffffffffffffffffffffffffffffffffffffffff168152602001908152602001600020600601546000808673ffffffffffffffffffffffffffffffffffffffff1673ffffffffffffffffffffffffffffffffffffffff16815260200190815260200160002060070160008060008873ffffffffffffffffffffffffffffffffffffffff1673ffffffffffffffffffffffffffffffffffffffff16815260200190815260200160002060060154815260200190815260200160002060000181905550826000808673ffffffffffffffffffffffffffffffffffffffff1673ffffffffffffffffffffffffffffffffffffffff16815260200190815260200160002060070160008060008873ffffffffffffffffffffffffffffffffffffffff1673ffffffffffffffffffffffffffffffffffffffff1681526020019081526020016000206006015481526020019081526020016000206001019080519060200190610a42929190612829565b50816000808673ffffffffffffffffffffffffffffffffffffffff1673ffffffffffffffffffffffffffffffffffffffff16815260200190815260200160002060070160008060008873ffffffffffffffffffffffffffffffffffffffff1673ffffffffffffffffffffffffffffffffffffffff1681526020019081526020016000206006015481526020019081526020016000206002019080519060200190610aed929190612829565b5050505050565b60001515600160008473ffffffffffffffffffffffffffffffffffffffff1673ffffffffffffffffffffffffffffffffffffffff16815260200190815260200160002060009054906101000a900460ff16151514610b87576040517f08c379a0000000000000000000000000000000000000000000000000000000008152600401610b7e90613017565b60405180910390fd5b60001515600260008473ffffffffffffffffffffffffffffffffffffffff1673ffffffffffffffffffffffffffffffffffffffff16815260200190815260200160002060009054906101000a900460ff16151514610c1a576040517f08c379a0000000000000000000000000000000000000000000000000000000008152600401610c11906130a9565b60405180910390fd5b60018060008473ffffffffffffffffffffffffffffffffffffffff1673ffffffffffffffffffffffffffffffffffffffff16815260200190815260200160002060006101000a81548160ff021916908315150217905550816000808473ffffffffffffffffffffffffffffffffffffffff1673ffffffffffffffffffffffffffffffffffffffff16815260200190815260200160002060000160006101000a81548173ffffffffffffffffffffffffffffffffffffffff021916908373ffffffffffffffffffffffffffffffffffffffff160217905550336000808473ffffffffffffffffffffffffffffffffffffffff1673ffffffffffffffffffffffffffffffffffffffff16815260200190815260200160002060010160006101000a81548173ffffffffffffffffffffffffffffffffffffffff021916908373ffffffffffffffffffffffffffffffffffffffff160217905550806000808473ffffffffffffffffffffffffffffffffffffffff1673ffffffffffffffffffffffffffffffffffffffff1681526020019081526020016000206003019080519060200190610dc6929190612829565b5060008060008473ffffffffffffffffffffffffffffffffffffffff1673ffffffffffffffffffffffffffffffffffffffff16815260200190815260200160002060080160016101000a81548160ff02191690831515021790555060008060008473ffffffffffffffffffffffffffffffffffffffff1673ffffffffffffffffffffffffffffffffffffffff1681526020019081526020016000206004018190555060008060008473ffffffffffffffffffffffffffffffffffffffff1673ffffffffffffffffffffffffffffffffffffffff168152602001908152602001600020600601819055505050565b600015156000808473ffffffffffffffffffffffffffffffffffffffff1673ffffffffffffffffffffffffffffffffffffffff16815260200190815260200160002060080160019054906101000a900460ff16151514610f48576040517f08c379a0000000000000000000000000000000000000000000000000000000008152600401610f3f90612f33565b60405180910390fd5b6000808373ffffffffffffffffffffffffffffffffffffffff1673ffffffffffffffffffffffffffffffffffffffff16815260200190815260200160002060090181908060018154018082558091505060019003906000526020600020016000909190919091509080519060200190610fc2929190612829565b5060008060008473ffffffffffffffffffffffffffffffffffffffff1673ffffffffffffffffffffffffffffffffffffffff168152602001908152602001600020600d01826040516110149190613105565b908152602001604051809103902060006101000a81548160ff0219169083151502179055505050565b826000808273ffffffffffffffffffffffffffffffffffffffff1673ffffffffffffffffffffffffffffffffffffffff16815260200190815260200160002060010160009054906101000a900473ffffffffffffffffffffffffffffffffffffffff1673ffffffffffffffffffffffffffffffffffffffff163373ffffffffffffffffffffffffffffffffffffffff16146110d757600080fd5b600073ffffffffffffffffffffffffffffffffffffffff168273ffffffffffffffffffffffffffffffffffffffff161415611147576040517f08c379a000000000000000000000000000000000000000000000000000000000815260040161113e90613168565b60405180910390fd5b6000808573ffffffffffffffffffffffffffffffffffffffff1673ffffffffffffffffffffffffffffffffffffffff168152602001908152602001600020600401600081548092919061119990612f82565b91905055506000808573ffffffffffffffffffffffffffffffffffffffff1673ffffffffffffffffffffffffffffffffffffffff168152602001908152602001600020600401546000808673ffffffffffffffffffffffffffffffffffffffff1673ffffffffffffffffffffffffffffffffffffffff16815260200190815260200160002060050160008060008873ffffffffffffffffffffffffffffffffffffffff1673ffffffffffffffffffffffffffffffffffffffff16815260200190815260200160002060040154815260200190815260200160002060000181905550826000808673ffffffffffffffffffffffffffffffffffffffff1673ffffffffffffffffffffffffffffffffffffffff16815260200190815260200160002060050160008060008873ffffffffffffffffffffffffffffffffffffffff1673ffffffffffffffffffffffffffffffffffffffff16815260200190815260200160002060040154815260200190815260200160002060010160006101000a81548173ffffffffffffffffffffffffffffffffffffffff021916908373ffffffffffffffffffffffffffffffffffffffff160217905550816000808673ffffffffffffffffffffffffffffffffffffffff1673ffffffffffffffffffffffffffffffffffffffff16815260200190815260200160002060050160008060008873ffffffffffffffffffffffffffffffffffffffff1673ffffffffffffffffffffffffffffffffffffffff16815260200190815260200160002060040154815260200190815260200160002060020160006101000a81548173ffffffffffffffffffffffffffffffffffffffff021916908373ffffffffffffffffffffffffffffffffffffffff16021790555050505050565b816000808273ffffffffffffffffffffffffffffffffffffffff1673ffffffffffffffffffffffffffffffffffffffff16815260200190815260200160002060010160009054906101000a900473ffffffffffffffffffffffffffffffffffffffff1673ffffffffffffffffffffffffffffffffffffffff163373ffffffffffffffffffffffffffffffffffffffff16146114c457600080fd5b6000808473ffffffffffffffffffffffffffffffffffffffff1673ffffffffffffffffffffffffffffffffffffffff168152602001908152602001600020600401600081548092919061151690613188565b919050555060008290505b6000808573ffffffffffffffffffffffffffffffffffffffff1673ffffffffffffffffffffffffffffffffffffffff168152602001908152602001600020600401548111611772576000808573ffffffffffffffffffffffffffffffffffffffff1673ffffffffffffffffffffffffffffffffffffffff16815260200190815260200160002060050160006001836115b991906131b2565b81526020019081526020016000206000808673ffffffffffffffffffffffffffffffffffffffff1673ffffffffffffffffffffffffffffffffffffffff1681526020019081526020016000206005016000838152602001908152602001600020600082015481600001556001820160009054906101000a900473ffffffffffffffffffffffffffffffffffffffff168160010160006101000a81548173ffffffffffffffffffffffffffffffffffffffff021916908373ffffffffffffffffffffffffffffffffffffffff1602179055506002820160009054906101000a900473ffffffffffffffffffffffffffffffffffffffff168160020160006101000a81548173ffffffffffffffffffffffffffffffffffffffff021916908373ffffffffffffffffffffffffffffffffffffffff1602179055509050506000808573ffffffffffffffffffffffffffffffffffffffff1673ffffffffffffffffffffffffffffffffffffffff1681526020019081526020016000206005016000828152602001908152602001600020600001600081548092919061175a90613188565b9190505550808061176a90612f82565b915050611521565b506000808473ffffffffffffffffffffffffffffffffffffffff1673ffffffffffffffffffffffffffffffffffffffff16815260200190815260200160002060050160008381526020019081526020016000206000808201600090556001820160006101000a81549073ffffffffffffffffffffffffffffffffffffffff02191690556002820160006101000a81549073ffffffffffffffffffffffffffffffffffffffff02191690555050505050565b60016000808373ffffffffffffffffffffffffffffffffffffffff1673ffffffffffffffffffffffffffffffffffffffff168152602001908152602001600020600d016000803373ffffffffffffffffffffffffffffffffffffffff1673ffffffffffffffffffffffffffffffffffffffff1681526020019081526020016000206003016040516118b491906132fd565b908152602001604051809103902060006101000a81548160ff02191690831515021790555050565b60008060008060008673ffffffffffffffffffffffffffffffffffffffff1673ffffffffffffffffffffffffffffffffffffffff1681526020019081526020016000206005016000858152602001908152602001600020600001546000808773ffffffffffffffffffffffffffffffffffffffff1673ffffffffffffffffffffffffffffffffffffffff168152602001908152602001600020600501600086815260200190815260200160002060010160009054906101000a900473ffffffffffffffffffffffffffffffffffffffff166000808873ffffffffffffffffffffffffffffffffffffffff1673ffffffffffffffffffffffffffffffffffffffff168152602001908152602001600020600501600087815260200190815260200160002060020160009054906101000a900473ffffffffffffffffffffffffffffffffffffffff169250925092509250925092565b611a3981612622565b15611d10576000808273ffffffffffffffffffffffffffffffffffffffff1673ffffffffffffffffffffffffffffffffffffffff16815260200190815260200160002060020160009054906101000a900473ffffffffffffffffffffffffffffffffffffffff166000808373ffffffffffffffffffffffffffffffffffffffff1673ffffffffffffffffffffffffffffffffffffffff16815260200190815260200160002060010160006101000a81548173ffffffffffffffffffffffffffffffffffffffff021916908373ffffffffffffffffffffffffffffffffffffffff1602179055506000808273ffffffffffffffffffffffffffffffffffffffff1673ffffffffffffffffffffffffffffffffffffffff16815260200190815260200160002060020160006101000a81549073ffffffffffffffffffffffffffffffffffffffff021916905560008060008373ffffffffffffffffffffffffffffffffffffffff1673ffffffffffffffffffffffffffffffffffffffff16815260200190815260200160002060080160006101000a81548160ff02191690831515021790555060005b6000808373ffffffffffffffffffffffffffffffffffffffff1673ffffffffffffffffffffffffffffffffffffffff168152602001908152602001600020600a0154811015611d0e5760008060008473ffffffffffffffffffffffffffffffffffffffff1673ffffffffffffffffffffffffffffffffffffffff168152602001908152602001600020600d016000808573ffffffffffffffffffffffffffffffffffffffff1673ffffffffffffffffffffffffffffffffffffffff1681526020019081526020016000206009018381548110611cbf57611cbe613314565b5b90600052602060002001604051611cd691906132fd565b908152602001604051809103902060006101000a81548160ff0219169083151502179055508080611d0690612f82565b915050611be0565b505b50565b600015156000808373ffffffffffffffffffffffffffffffffffffffff1673ffffffffffffffffffffffffffffffffffffffff16815260200190815260200160002060080160009054906101000a900460ff16151514611da8576040517f08c379a0000000000000000000000000000000000000000000000000000000008152600401611d9f9061338f565b60405180910390fd5b336000808373ffffffffffffffffffffffffffffffffffffffff1673ffffffffffffffffffffffffffffffffffffffff16815260200190815260200160002060020160006101000a81548173ffffffffffffffffffffffffffffffffffffffff021916908373ffffffffffffffffffffffffffffffffffffffff16021790555060016000808373ffffffffffffffffffffffffffffffffffffffff1673ffffffffffffffffffffffffffffffffffffffff16815260200190815260200160002060080160006101000a81548160ff02191690831515021790555050565b816000808273ffffffffffffffffffffffffffffffffffffffff1673ffffffffffffffffffffffffffffffffffffffff16815260200190815260200160002060010160009054906101000a900473ffffffffffffffffffffffffffffffffffffffff1673ffffffffffffffffffffffffffffffffffffffff163373ffffffffffffffffffffffffffffffffffffffff1614611f1f57600080fd5b6000808473ffffffffffffffffffffffffffffffffffffffff1673ffffffffffffffffffffffffffffffffffffffff1681526020019081526020016000206006016000815480929190611f7190613188565b919050555060008290505b6000808573ffffffffffffffffffffffffffffffffffffffff1673ffffffffffffffffffffffffffffffffffffffff16815260200190815260200160002060060154811161213f576000808573ffffffffffffffffffffffffffffffffffffffff1673ffffffffffffffffffffffffffffffffffffffff168152602001908152602001600020600701600060018361201491906131b2565b81526020019081526020016000206000808673ffffffffffffffffffffffffffffffffffffffff1673ffffffffffffffffffffffffffffffffffffffff168152602001908152602001600020600701600083815260200190815260200160002060008201548160000155600182018160010190805461209290613237565b61209d9291906128af565b5060028201816002019080546120b290613237565b6120bd9291906128af565b509050506000808573ffffffffffffffffffffffffffffffffffffffff1673ffffffffffffffffffffffffffffffffffffffff1681526020019081526020016000206007016000828152602001908152602001600020600001600081548092919061212790613188565b9190505550808061213790612f82565b915050611f7c565b506000808473ffffffffffffffffffffffffffffffffffffffff1673ffffffffffffffffffffffffffffffffffffffff16815260200190815260200160002060070160008381526020019081526020016000206000808201600090556001820160006121ab91906127c8565b6002820160006121bb91906127c8565b5050505050565b60606000808373ffffffffffffffffffffffffffffffffffffffff1673ffffffffffffffffffffffffffffffffffffffff168152602001908152602001600020600301805461221090613237565b80601f016020809104026020016040519081016040528092919081815260200182805461223c90613237565b80156122895780601f1061225e57610100808354040283529160200191612289565b820191906000526020600020905b81548152906001019060200180831161226c57829003601f168201915b50505050509050919050565b60006060806000808673ffffffffffffffffffffffffffffffffffffffff1673ffffffffffffffffffffffffffffffffffffffff1681526020019081526020016000206007016000858152602001908152602001600020600001546000808773ffffffffffffffffffffffffffffffffffffffff1673ffffffffffffffffffffffffffffffffffffffff16815260200190815260200160002060070160008681526020019081526020016000206001016000808873ffffffffffffffffffffffffffffffffffffffff1673ffffffffffffffffffffffffffffffffffffffff16815260200190815260200160002060070160008781526020019081526020016000206002018180546123a690613237565b80601f01602080910402602001604051908101604052809291908181526020018280546123d290613237565b801561241f5780601f106123f45761010080835404028352916020019161241f565b820191906000526020600020905b81548152906001019060200180831161240257829003601f168201915b5050505050915080805461243290613237565b80601f016020809104026020016040519081016040528092919081815260200182805461245e90613237565b80156124ab5780601f10612480576101008083540402835291602001916124ab565b820191906000526020600020905b81548152906001019060200180831161248e57829003601f168201915b505050505090509250925092509250925092565b60606000806000808573ffffffffffffffffffffffffffffffffffffffff1673ffffffffffffffffffffffffffffffffffffffff1681526020019081526020016000206003016000808673ffffffffffffffffffffffffffffffffffffffff1673ffffffffffffffffffffffffffffffffffffffff168152602001908152602001600020600401546000808773ffffffffffffffffffffffffffffffffffffffff1673ffffffffffffffffffffffffffffffffffffffff1681526020019081526020016000206006015482805461259590613237565b80601f01602080910402602001604051908101604052809291908181526020018280546125c190613237565b801561260e5780601f106125e35761010080835404028352916020019161260e565b820191906000526020600020905b8154815290600101906020018083116125f157829003601f168201915b505050505092509250925092509193909250565b6000806000905060005b6000808573ffffffffffffffffffffffffffffffffffffffff1673ffffffffffffffffffffffffffffffffffffffff168152602001908152602001600020600a015481101561276a57600115156000808673ffffffffffffffffffffffffffffffffffffffff1673ffffffffffffffffffffffffffffffffffffffff168152602001908152602001600020600d016000808773ffffffffffffffffffffffffffffffffffffffff1673ffffffffffffffffffffffffffffffffffffffff168152602001908152602001600020600901838154811061270d5761270c613314565b5b9060005260206000200160405161272491906132fd565b908152602001604051809103902060009054906101000a900460ff161515141561275757818061275390612f82565b9250505b808061276290612f82565b91505061262c565b506000808473ffffffffffffffffffffffffffffffffffffffff1673ffffffffffffffffffffffffffffffffffffffff168152602001908152602001600020600b015481106127bd5760019150506127c3565b60009150505b919050565b5080546127d490613237565b6000825580601f106127e65750612805565b601f016020900490600052602060002090810190612804919061293c565b5b50565b50805460008255906000526020600020908101906128269190612959565b50565b82805461283590613237565b90600052602060002090601f016020900481019282612857576000855561289e565b82601f1061287057805160ff191683800117855561289e565b8280016001018555821561289e579182015b8281111561289d578251825591602001919060010190612882565b5b5090506128ab919061293c565b5090565b8280546128bb90613237565b90600052602060002090601f0160209004810192826128dd576000855561292b565b82601f106128ee578054855561292b565b8280016001018555821561292b57600052602060002091601f016020900482015b8281111561292a57825482559160010191906001019061290f565b5b509050612938919061293c565b5090565b5b8082111561295557600081600090555060010161293d565b5090565b5b80821115612979576000818161297091906127c8565b5060010161295a565b5090565b6000604051905090565b600080fd5b600080fd5b600073ffffffffffffffffffffffffffffffffffffffff82169050919050565b60006129bc82612991565b9050919050565b6129cc816129b1565b81146129d757600080fd5b50565b6000813590506129e9816129c3565b92915050565b6000819050919050565b612a02816129ef565b8114612a0d57600080fd5b50565b600081359050612a1f816129f9565b92915050565b600080600060608486031215612a3e57612a3d612987565b5b6000612a4c868287016129da565b9350506020612a5d86828701612a10565b9250506040612a6e86828701612a10565b9150509250925092565b600060208284031215612a8e57612a8d612987565b5b6000612a9c848285016129da565b91505092915050565b600080fd5b600080fd5b6000601f19601f8301169050919050565b7f4e487b7100000000000000000000000000000000000000000000000000000000600052604160045260246000fd5b612af882612aaf565b810181811067ffffffffffffffff82111715612b1757612b16612ac0565b5b80604052505050565b6000612b2a61297d565b9050612b368282612aef565b919050565b600067ffffffffffffffff821115612b5657612b55612ac0565b5b612b5f82612aaf565b9050602081019050919050565b82818337600083830152505050565b6000612b8e612b8984612b3b565b612b20565b905082815260208101848484011115612baa57612ba9612aaa565b5b612bb5848285612b6c565b509392505050565b600082601f830112612bd257612bd1612aa5565b5b8135612be2848260208601612b7b565b91505092915050565b600080600060608486031215612c0457612c03612987565b5b6000612c12868287016129da565b935050602084013567ffffffffffffffff811115612c3357612c3261298c565b5b612c3f86828701612bbd565b925050604084013567ffffffffffffffff811115612c6057612c5f61298c565b5b612c6c86828701612bbd565b9150509250925092565b60008060408385031215612c8d57612c8c612987565b5b6000612c9b858286016129da565b925050602083013567ffffffffffffffff811115612cbc57612cbb61298c565b5b612cc885828601612bbd565b9150509250929050565b600080600060608486031215612ceb57612cea612987565b5b6000612cf9868287016129da565b9350506020612d0a868287016129da565b9250506040612d1b868287016129da565b9150509250925092565b60008060408385031215612d3c57612d3b612987565b5b6000612d4a858286016129da565b9250506020612d5b85828601612a10565b9150509250929050565b612d6e816129ef565b82525050565b612d7d816129b1565b82525050565b6000606082019050612d986000830186612d65565b612da56020830185612d74565b612db26040830184612d74565b949350505050565b600081519050919050565b600082825260208201905092915050565b60005b83811015612df4578082015181840152602081019050612dd9565b83811115612e03576000848401525b50505050565b6000612e1482612dba565b612e1e8185612dc5565b9350612e2e818560208601612dd6565b612e3781612aaf565b840191505092915050565b60006020820190508181036000830152612e5c8184612e09565b905092915050565b6000606082019050612e796000830186612d65565b8181036020830152612e8b8185612e09565b90508181036040830152612e9f8184612e09565b9050949350505050565b60006060820190508181036000830152612ec38186612e09565b9050612ed26020830185612d65565b612edf6040830184612d65565b949350505050565b7f7468652064656c65676174652065786973747300000000000000000000000000600082015250565b6000612f1d601383612dc5565b9150612f2882612ee7565b602082019050919050565b60006020820190508181036000830152612f4c81612f10565b9050919050565b7f4e487b7100000000000000000000000000000000000000000000000000000000600052601160045260246000fd5b6000612f8d826129ef565b91507fffffffffffffffffffffffffffffffffffffffffffffffffffffffffffffffff821415612fc057612fbf612f53565b5b600182019050919050565b7f7468652044494420646f63756d656e7420616c72656164792065786973747300600082015250565b6000613001601f83612dc5565b915061300c82612fcb565b602082019050919050565b6000602082019050818103600083015261303081612ff4565b9050919050565b7f7468652044494420646f63756d656e7420686173206265656e207265766f6b6560008201527f6400000000000000000000000000000000000000000000000000000000000000602082015250565b6000613093602183612dc5565b915061309e82613037565b604082019050919050565b600060208201905081810360008301526130c281613086565b9050919050565b600081905092915050565b60006130df82612dba565b6130e981856130c9565b93506130f9818560208601612dd6565b80840191505092915050565b600061311182846130d4565b915081905092915050565b7f746865206b65792076616c7565206973206e756c6c0000000000000000000000600082015250565b6000613152601583612dc5565b915061315d8261311c565b602082019050919050565b6000602082019050818103600083015261318181613145565b9050919050565b6000613193826129ef565b915060008214156131a7576131a6612f53565b5b600182039050919050565b60006131bd826129ef565b91506131c8836129ef565b9250827fffffffffffffffffffffffffffffffffffffffffffffffffffffffffffffffff038211156131fd576131fc612f53565b5b828201905092915050565b7f4e487b7100000000000000000000000000000000000000000000000000000000600052602260045260246000fd5b6000600282049050600182168061324f57607f821691505b6020821081141561326357613262613208565b5b50919050565b60008190508160005260206000209050919050565b6000815461328b81613237565b61329581866130c9565b945060018216600081146132b057600181146132c1576132f4565b60ff198316865281860193506132f4565b6132ca85613269565b60005b838110156132ec578154818901526001820191506020810190506132cd565b838801955050505b50505092915050565b6000613309828461327e565b915081905092915050565b7f4e487b7100000000000000000000000000000000000000000000000000000000600052603260045260246000fd5b7f6167726565696e67206973207472756500000000000000000000000000000000600082015250565b6000613379601083612dc5565b915061338482613343565b602082019050919050565b600060208201905081810360008301526133a88161336c565b905091905056fea2646970667358221220e752060124cce48a209c8c073f2c62ef8a005943d63975ef861628ecb3048a8d64736f6c63430008090033",
  "linkReferences": {},
  "deployedLinkReferences": {}
}